{
  "_format": "hh-sol-artifact-1",
  "contractName": "TimeCapsule",
  "sourceName": "contracts/TimeCapsule.sol",
  "abi": [
    {
      "anonymous": false,
      "inputs": [
        {
          "indexed": true,
          "internalType": "address",
          "name": "sender",
          "type": "address"
        },
        {
          "indexed": true,
          "internalType": "address",
          "name": "beneficiary",
          "type": "address"
        },
        {
          "indexed": false,
          "internalType": "uint256",
          "name": "amount",
          "type": "uint256"
        },
        {
          "indexed": false,
          "internalType": "uint256",
          "name": "unlockTime",
          "type": "uint256"
        }
      ],
      "name": "Locked",
      "type": "event"
    },
    {
      "anonymous": false,
      "inputs": [
        {
          "indexed": true,
          "internalType": "address",
          "name": "beneficiary",
          "type": "address"
        },
        {
          "indexed": false,
          "internalType": "uint256",
          "name": "amount",
          "type": "uint256"
        }
      ],
      "name": "Withdrawal",
      "type": "event"
    },
    {
      "inputs": [
        {
          "internalType": "address",
          "name": "user",
          "type": "address"
        }
      ],
      "name": "getLock",
      "outputs": [
        {
          "internalType": "uint256",
          "name": "amount",
          "type": "uint256"
        },
        {
          "internalType": "uint256",
          "name": "unlockTime",
          "type": "uint256"
        },
        {
          "internalType": "address",
          "name": "beneficiary",
          "type": "address"
        }
      ],
      "stateMutability": "view",
      "type": "function"
    },
    {
      "inputs": [
        {
          "internalType": "uint256",
          "name": "duration",
          "type": "uint256"
        },
        {
          "internalType": "address",
          "name": "beneficiary",
          "type": "address"
        }
      ],
      "name": "lock",
      "outputs": [],
      "stateMutability": "payable",
      "type": "function"
    },
    {
      "inputs": [
        {
          "internalType": "address",
          "name": "",
          "type": "address"
        }
      ],
      "name": "locks",
      "outputs": [
        {
          "internalType": "uint256",
          "name": "amount",
          "type": "uint256"
        },
        {
          "internalType": "uint256",
          "name": "unlockTime",
          "type": "uint256"
        },
        {
          "internalType": "address",
          "name": "beneficiary",
          "type": "address"
        }
      ],
      "stateMutability": "view",
      "type": "function"
    },
    {
      "inputs": [],
      "name": "withdraw",
      "outputs": [],
      "stateMutability": "nonpayable",
      "type": "function"
    }
  ],
  "bytecode": "0x608060405234801561001057600080fd5b50610e4b806100206000396000f3fe60806040526004361061003f5760003560e01c80633ccfd60b146100445780635de9a1371461005b57806366dfbfb41461009a5780636b9db4e6146100b6575b600080fd5b34801561005057600080fd5b506100596100f5565b005b34801561006757600080fd5b50610082600480360381019061007d9190610899565b610432565b604051610091939291906108ee565b60405180910390f35b6100b460048036038101906100af9190610951565b61047c565b005b3480156100c257600080fd5b506100dd60048036038101906100d89190610899565b61073e565b6040516100ec939291906108ee565b60405180910390f35b60008060003373ffffffffffffffffffffffffffffffffffffffff1673ffffffffffffffffffffffffffffffffffffffff16815260200190815260200160002060405180606001604052908160008201548152602001600182015481526020016002820160009054906101000a900473ffffffffffffffffffffffffffffffffffffffff1673ffffffffffffffffffffffffffffffffffffffff1673ffffffffffffffffffffffffffffffffffffffff1681525050905060008160000151116101f3576040517f08c379a00000000000000000000000000000000000000000000000000000000081526004016101ea906109ee565b60405180910390fd5b806020015142101561023a576040517f08c379a000000000000000000000000000000000000000000000000000000000815260040161023190610a5a565b60405180910390fd5b806040015173ffffffffffffffffffffffffffffffffffffffff163373ffffffffffffffffffffffffffffffffffffffff16146102ac576040517f08c379a00000000000000000000000000000000000000000000000000000000081526004016102a390610ac6565b60405180910390fd5b6000803373ffffffffffffffffffffffffffffffffffffffff1673ffffffffffffffffffffffffffffffffffffffff16815260200190815260200160002060008082016000905560018201600090556002820160006101000a81549073ffffffffffffffffffffffffffffffffffffffff021916905550506000816040015173ffffffffffffffffffffffffffffffffffffffff16826000015160405161035290610b17565b60006040518083038185875af1925050503d806000811461038f576040519150601f19603f3d011682016040523d82523d6000602084013e610394565b606091505b50509050806103d8576040517f08c379a00000000000000000000000000000000000000000000000000000000081526004016103cf90610b78565b60405180910390fd5b816040015173ffffffffffffffffffffffffffffffffffffffff167f7fcf532c15f0a6db0bd6d0e038bea71d30d808c7d98cb3bf7268a95bf5081b6583600001516040516104269190610b98565b60405180910390a25050565b60006020528060005260406000206000915090508060000154908060010154908060020160009054906101000a900473ffffffffffffffffffffffffffffffffffffffff16905083565b600034116104bf576040517f08c379a00000000000000000000000000000000000000000000000000000000081526004016104b690610bff565b60405180910390fd5b60008211610502576040517f08c379a00000000000000000000000000000000000000000000000000000000081526004016104f990610c6b565b60405180910390fd5b600073ffffffffffffffffffffffffffffffffffffffff168173ffffffffffffffffffffffffffffffffffffffff1603610571576040517f08c379a000000000000000000000000000000000000000000000000000000000815260040161056890610cd7565b60405180910390fd5b60008060003373ffffffffffffffffffffffffffffffffffffffff1673ffffffffffffffffffffffffffffffffffffffff16815260200190815260200160002060000154146105f5576040517f08c379a00000000000000000000000000000000000000000000000000000000081526004016105ec90610d69565b60405180910390fd5b600082426106039190610db8565b905060405180606001604052803481526020018281526020018373ffffffffffffffffffffffffffffffffffffffff168152506000803373ffffffffffffffffffffffffffffffffffffffff1673ffffffffffffffffffffffffffffffffffffffff168152602001908152602001600020600082015181600001556020820151816001015560408201518160020160006101000a81548173ffffffffffffffffffffffffffffffffffffffff021916908373ffffffffffffffffffffffffffffffffffffffff1602179055509050508173ffffffffffffffffffffffffffffffffffffffff163373ffffffffffffffffffffffffffffffffffffffff167f967ad762aa9070ada8db64577288e214771e89667066ae38e8750cb8a86c54293484604051610731929190610dec565b60405180910390a3505050565b60008060008060008573ffffffffffffffffffffffffffffffffffffffff1673ffffffffffffffffffffffffffffffffffffffff168152602001908152602001600020600001546000808673ffffffffffffffffffffffffffffffffffffffff1673ffffffffffffffffffffffffffffffffffffffff168152602001908152602001600020600101546000808773ffffffffffffffffffffffffffffffffffffffff1673ffffffffffffffffffffffffffffffffffffffff16815260200190815260200160002060020160009054906101000a900473ffffffffffffffffffffffffffffffffffffffff169250925092509193909250565b600080fd5b600073ffffffffffffffffffffffffffffffffffffffff82169050919050565b60006108668261083b565b9050919050565b6108768161085b565b811461088157600080fd5b50565b6000813590506108938161086d565b92915050565b6000602082840312156108af576108ae610836565b5b60006108bd84828501610884565b91505092915050565b6000819050919050565b6108d9816108c6565b82525050565b6108e88161085b565b82525050565b600060608201905061090360008301866108d0565b61091060208301856108d0565b61091d60408301846108df565b949350505050565b61092e816108c6565b811461093957600080fd5b50565b60008135905061094b81610925565b92915050565b6000806040838503121561096857610967610836565b5b60006109768582860161093c565b925050602061098785828601610884565b9150509250929050565b600082825260208201905092915050565b7f4e6f2066756e6473206c6f636b65640000000000000000000000000000000000600082015250565b60006109d8600f83610991565b91506109e3826109a2565b602082019050919050565b60006020820190508181036000830152610a07816109cb565b9050919050565b7f4c6f636b20706572696f64206e6f742079657420657870697265640000000000600082015250565b6000610a44601b83610991565b9150610a4f82610a0e565b602082019050919050565b60006020820190508181036000830152610a7381610a37565b9050919050565b7f4f6e6c792062656e65666963696172792063616e207769746864726177000000600082015250565b6000610ab0601d83610991565b9150610abb82610a7a565b602082019050919050565b60006020820190508181036000830152610adf81610aa3565b9050919050565b600081905092915050565b50565b6000610b01600083610ae6565b9150610b0c82610af1565b600082019050919050565b6000610b2282610af4565b9150819050919050565b7f5472616e73666572206661696c65640000000000000000000000000000000000600082015250565b6000610b62600f83610991565b9150610b6d82610b2c565b602082019050919050565b60006020820190508181036000830152610b9181610b55565b9050919050565b6000602082019050610bad60008301846108d0565b92915050565b7f416d6f756e74206d7573742062652067726561746572207468616e2030000000600082015250565b6000610be9601d83610991565b9150610bf482610bb3565b602082019050919050565b60006020820190508181036000830152610c1881610bdc565b9050919050565b7f4475726174696f6e206d7573742062652067726561746572207468616e203000600082015250565b6000610c55601f83610991565b9150610c6082610c1f565b602082019050919050565b60006020820190508181036000830152610c8481610c48565b9050919050565b7f496e76616c69642062656e656669636961727920616464726573730000000000600082015250565b6000610cc1601b83610991565b9150610ccc82610c8b565b602082019050919050565b60006020820190508181036000830152610cf081610cb4565b9050919050565b7f4578697374696e67206c6f636b20666f756e642e20576974686472617720666960008201527f7273742e00000000000000000000000000000000000000000000000000000000602082015250565b6000610d53602483610991565b9150610d5e82610cf7565b604082019050919050565b60006020820190508181036000830152610d8281610d46565b9050919050565b7f4e487b7100000000000000000000000000000000000000000000000000000000600052601160045260246000fd5b6000610dc3826108c6565b9150610dce836108c6565b9250828201905080821115610de657610de5610d89565b5b92915050565b6000604082019050610e0160008301856108d0565b610e0e60208301846108d0565b939250505056fea264697066735822122030d7b94a06956ccb5cd7494bf67010fa539990fd3ec2c81fc880607631d3eb3964736f6c63430008180033",
  "linkReferences": {},
  "deployedLinkReferences": {}
}